:100000000C9438000C9455000C9455000C94550039
:100010000C9455000C9455000C9455000C9455000C
:100020000C9455000C9455000C9455000C945500FC
:100030000C9455000C9455000C9455000C945500EC
:100040000C9455000C9455000C9455000C945500DC
:100050000C9455000C9455000C9455000C945500CC
:100060000C9455000C9455000C9455000C945500BC
:1000700011241FBECFEFD0E1DEBFCDBF11E0A0E065
:10008000B1E0EAE8F7E102C005900D92AE3CB1079D
:10009000D9F711E0AEECB1E001C01D92AF3CB10761
:1000A000E1F70E9473020C94C30B0C94000089B119
:1000B00080B18FEF90E00E94FF0289B18F3719F075
:1000C00089B18F3B29F48FEF90E00E94EC020AC0C7
:1000D00089B18F3D19F089B18F3E21F48FEF90E007
:1000E0000E94FF0284E190E00E943904E6CFFF9273
:1000F0000F931F938FEF82B98BB98AE090E00E9433
:10010000390409B1F0B080E091E00E947D0380E8FD
:1001100089B986E191E00E94700389B10E949F0332
:1001200088EE93E00E94390419B857C080B10E944C
:100130009F0386E191E00E94700389B10E949F03B2
:1001400019B1101719F119B117FD02C089E307C0E1
:1001500016FD02C08AE303C015FD04C08BE368EE00
:1001600073E031C014FD02C08CE3F9CF13FD02C06F
:100170008DE3F5CF12FD02C08EE323C011FD02C056
:100180008FE31FC010FD21C080E41BC080B18F151C
:10019000E1F0F0B0F5FC02C087E413C0F4FC02C04B
:1001A00088E40FC0F3FC02C089E40BC0F2FC02C07B
:1001B0008AE407C0F1FC02C08BE403C0F0FC05C078
:1001C0008CE464E670E00E946F068AE090E00E9492
:1001D000390485E90E946803012F86B1827509F40C
:1001E000A5CF12B81BB81F910F91FF9008958EE311
:1001F00068EE73E00E946F0684E690E00E94390486
:100200008EE368EE73E00E946F0684E690E00E9441
:10021000390480E468EE73E00E946F0684E690E0A3
:100220000E9439048CE368EE73E00E946F0684E656
:1002300090E00E94390482E468EE73E00E946F0649
:1002400088EE93E00E9439048CE368EE73E00E942C
:100250006F068CE291E00E9439048AE368EE73E055
:100260000E946F0688E592E00E94390481E468EEFE
:1002700073E00E946F0688EE93E00E9439048BE3DE
:1002800068EE73E00E946F068EE368EE73E00E94F2
:100290006F068BE368EE73E00E946F0608950F937C
:1002A0001F938C0180E00E94070580E00E94C90432
:1002B000C8010E94900488279927801B910B0E94F7
:1002C000CE0488EE93E00E9439041F910F910895A7
:1002D000EF92FF920F931F937C018B0180E00E94AD
:1002E000070580E00E94C904C7010E949004C8016C
:1002F0000E94CE0480E80E94680389E191E00E9498
:100300007D0380EC0E9468038E2D0E9489031F915B
:100310000F91FF90EF9008950F931F93182F092FBF
:1003200080E00E94070580E00E94C904812F902F81
:100330000E949004812F902F0E94CE0480E80E949A
:10034000680389E191E00E947D0380EC0E946803CC
:10035000812F0E9489031F910F9108951F9381E2BD
:1003600091E00E947D0387E280937C0063C08091CE
:100370007A00806480937A0080917A0086FDFCCFB9
:100380001091790089E191E00E94700384ED0E9450
:10039000680389E191E00E947003812F0E94890324
:1003A0008FEF90E00E948C0180E797E10E94390472
:1003B0000E94F70088EC90E064E670E00E9468011B
:1003C00088EE93E00E9439040E94F70084E690E0F2
:1003D0000E948C0180E797E10E94390484E690E056
:1003E00068EC70E00E9468010E94F70088EE93E0DC
:1003F0000E9439048CE99FEF0E948C0180E797E10D
:100400000E9439040E94F70081E09FEF0E948C0156
:1004100080E797E10E94390482E390E068EC70E0A5
:100420000E94680180E797E10E9439048AE090E029
:100430000E94390486B1827509F499CF80E00E9448
:10044000C40480E00E9402051F910895FF920F935B
:100450001F93DF93CF9300D0CDB7DEB784E391E055
:100460000E947D0384ED0E946803CE010196BE01C7
:100470006E5F7F4F0E947A0A82E491E00E947003CF
:1004800089810E9489038EE20E946C038A810E9406
:10049000890380E991E00E94390480EC0E9468039E
:1004A000FF240DC00E946C03F801808162E370E0BC
:1004B0000E946F068FE090E00E943904F3940F2DA4
:1004C00010E0055B1E4FF8018081882359F784E80E
:1004D00093E00E9439040F900F90CF91DF911F910C
:1004E0000F91FF9008951F930E9448040E940C04EE
:1004F00087B18D6A87B988B18D6A88B987E880939A
:100500007A000E94260280E691E00E947D0380EC42
:100510000E94680389E691E00E94700386E280935E
:100520007C0013C080917A00806480937A0080916F
:100530007A0086FDFCCF80E10E94680380E10E9482
:100540006803809179000E94890386B1827551F316
:1005500016B1127582E090E00E94390486B182756E
:10056000E9F782E090E00E943904123019F40E9409
:10057000570009C0103119F40E94AE0104C01034B4
:1005800011F40E94770086B18275E9F3E1CFEF9212
:10059000FF920F931F938C017B0180E00E9407055F
:1005A00080E00E94C904C8010E949004C7010E9413
:1005B000CE041F910F91FF90EF9008958DE891E088
:1005C0000E94700380E80E94680380E090E060E091
:1005D00070E00E94C7020895CF93DF93EC0187E992
:1005E00091E00E94700380E80E946803D7FF04C076
:1005F000CE01BE010E94C702DF91CF910895CF9333
:10060000DF93EC0187EA91E00E94700380E80E948A
:1006100068031C161D0624F4CE01BE010E94C70209
:10062000DF91CF91089587EB91E00E94700380E8FD
:100630000E9468038FEF90E061E07FEF0E94C702A5
:10064000089582EC91E00E94700380E80E946803A4
:1006500081E09FEF6FEF70E00E94C702089597B1AD
:1006600017B885B18C7F826085B92B9A0000000095
:10067000000086B12B980000000000000000000080
:10068000000000000000000000000000000087FDE6
:10069000ECCF97B908950F931F93082F162F0E9440
:1006A0002F0327B198B185B18C7F85B985B1812B96
:1006B00085B98FEF87B918B82B9A000008B90000E8
:1006C000000000002B9898B927B91F910F91089549
:1006D00060E00E944B03089561E00E944B0308957F
:1006E000CF93DF93EC0103C021960E946C038881B5
:1006F0008823D1F7DF91CF9108950F931F938C0139
:1007000081E00E946803C8010E9470031F910F914D
:1007100008951F93182F82958F708A3010F4805D92
:1007200001C0895C0E946C03812F8F708A3010F4A5
:10073000805D01C0895C0E946C031F910895FF9247
:100740000F931F93F82E00E010E8812F8F2111F0F6
:1007500081E301C080E30E946C030F5F083011F059
:100760001695F3CF1F910F91FF900895EF92FF928E
:100770001F93DF93CF9300D000D00F92CDB7DEB799
:10078000BC0115E07E010894E11CF11C462FCB0151
:100790006AE070E00E94AF0B1150F701E10FF11D0C
:1007A000405DCB01880F991F9B0153E0220F331F3F
:1007B0005A95E1F7820F931F481B4083611571051D
:1007C00029F708C0F701E10FF11D80810E946C0339
:1007D0001F5F04C07E010894E11CF11C153090F3EA
:1007E0000F900F900F900F900F90CF91DF911F916E
:1007F000FF90EF900895CF93DF93EC0197FF06C031
:100800008DE20E946C03D095C195DF4FCE010E940E
:10081000B603DF91CF91089584B18B6084B98EE1E6
:1008200090E00E94390480E30E94680385E090E034
:100830000E94390480E30E94680386E990E06F9388
:1008400064E06A95F1F76F910197C9F780E30E9420
:10085000680388E30E94680388E00E94680381E0DF
:100860000E94680386E00E9468038CE00E9468038F
:100870000895009761F06F9364E57F937DE47A9526
:10088000F1F77F916A95C9F76F910197A1F70895E4
:1008900084B1806B84B9269881E58CBD81E08DBDE3
:1008A0001092CE010895982F8091CE01882319F0DF
:1008B0000DB407FEFDCF9EBD81E08093CE0108956B
:1008C000282F8091CE01882319F00DB407FEFDCFAB
:1008D00083E090E06F9364E06A95F1F76F91019780
:1008E000C9F72EBD0DB407FEFDCF1092CE018EB517
:1008F0000895982F8091CE01882319F00DB407FE3A
:10090000FDCF862F881F8827881F892B8EBD0DB4A9
:1009100007FEFDCF6F776EBD81E08093CE01089515
:10092000BC018F3F910521F01CF06FEF70E009C012
:100930008FEF613078071CF461E07FEF04C077FD32
:1009400002C088E804C0709561957F4F8AE80E94D4
:1009500079040895BC018F3F910521F01CF06FEFE1
:1009600070E009C08FEF613078071CF461E07FEF21
:1009700004C077FD02C088EE04C0709561957F4F7A
:100980008AEE0E9479040895682F80E80E94790415
:100990000895682F82E80E9479040895BC018F3F72
:1009A000910521F01CF06FEF70E009C08FEF61300E
:1009B00078071CF461E07FEF04C077FD02C08CE88B
:1009C00004C0709561957F4F8EE80E947904089568
:1009D000BC018F3F910521F01CF06FEF70E009C062
:1009E0008FEF613078071CF461E07FEF04C077FD82
:1009F00002C08CEE04C0709561957F4F8EEE0E9410
:100A000079040895682F84E80E9479040895682F76
:100A100086E80E9479040895BC018F3F910521F07A
:100A20001CF06FEF70E009C08FEF613078071CF4A5
:100A300061E07FEF04C077FD02C082E904C07095D9
:100A400061957F4F84E90E9479040895BC018F3F2E
:100A5000910529F024F084EE6FEF70E00FC08FEF66
:100A6000613078071CF461E07FEF04C077FD02C0BD
:100A700084EE04C0709561957F4F86EE0E947904E4
:100A80000895682F80E90E94790408958091CE012D
:100A9000882319F00DB407FEFDCF87ED8EBD81E0F0
:100AA0008093CE010895982F87FD9FE78091CE0116
:100AB000882319F00DB407FEFDCF8CEB8EBD0DB46D
:100AC00007FEFDCF9EBD81E08093CE010895982F53
:100AD00087FD9FE78091CE01882319F00DB407FEB2
:100AE000FDCF8EEB8EBD0DB407FEFDCF9EBD81E028
:100AF0008093CE010895982F87FD9FE78091CE01C6
:100B0000882319F00DB407FEFDCF80ED8EBD0DB426
:100B100007FEFDCF9EBD81E08093CE010895982F02
:100B200087FD9FE78091CE01882319F00DB407FE61
:100B3000FDCF81ED8EBD0DB407FEFDCF9EBD81E0E2
:100B40008093CE010895382F8091CE01882319F02B
:100B50000DB407FEFDCF82ED8EBD0DB407FEFDCFB7
:100B6000643008F063E080E090E0332311F081E02E
:100B700090E0880F991F880F991F682B80E090E004
:100B8000442311F081E090E035E0880F991F3A95F9
:100B9000E1F7682B243008F023E0220F220F220F08
:100BA000622B6EBD81E08093CE010895982F8091D5
:100BB000CE01882319F00DB407FEFDCF84ED8EBD64
:100BC0000DB407FEFDCF683008F067E070E0E3E0A9
:100BD000660F771FEA95E1F7892F983008F087E0D4
:100BE000862B8EBD81E08093CE010895982F67FDFE
:100BF0006FE78091CE01882319F00DB407FEFDCF79
:100C000080EC8EBD0DB407FEFDCF9F779EBD0DB469
:100C100007FEFDCF6EBD81E08093CE010895982F31
:100C200067FD6FE78091CE01882319F00DB407FEB0
:100C3000FDCF82EC8EBD0DB407FEFDCF9F779EBD2C
:100C40000DB407FEFDCF6EBD81E08093CE01089507
:100C50008091CE01882319F00DB407FEFDCF88EDF9
:100C60008EBD0DB407FEFDCF83E090E06F9364E08E
:100C70006A95F1F76F910197C9F71EBC0DB407FE95
:100C8000FDCF1092CE018EB508958091CE018823BC
:100C900019F00DB407FEFDCF89ED8EBD0DB407FE32
:100CA000FDCF83E090E06F9364E06A95F1F76F9178
:100CB0000197C9F71EBC0DB407FEFDCF1092CE01FF
:100CC0008EB508958091CE01882319F00DB407FEEA
:100CD000FDCF81EE8EBD81E08093CE010895DF933C
:100CE000CF9300D0CDB7DEB7482F7A836983562FD4
:100CF0009A818091CE01882319F00DB407FEFDCFB3
:100D0000842F881F8827881F8869252F30E0207846
:100D10003070A5E035952795AA95E1F7822B292F0C
:100D200030E020783070F6E035952795FA95E1F7B8
:100D3000822B8EBD0DB407FEFDCF4F774EBD0DB497
:100D400007FEFDCF9F779EBD0DB407FEFDCF5F77F9
:100D50005EBD81E08093CE010F900F90CF91DF9127
:100D60000895DF93CF9300D000D0CDB7DEB79A833C
:100D700089837C836B8397FF04C08FEF9FE79A83FF
:100D8000898349816A815B819C818091CE0188231E
:100D900019F00DB407FEFDCF842F881F8827881F08
:100DA000806A252F30E02078307075E035952795E2
:100DB0007A95E1F7822B292F30E020783070B6E069
:100DC00035952795BA95E1F7822B8EBD0DB407FEB8
:100DD000FDCF6EBD0DB407FEFDCF4F774EBD0DB4F8
:100DE00007FEFDCF9F779EBD0DB407FEFDCF5F7759
:100DF0005EBD81E08093CE010F900F900F900F9019
:100E0000CF91DF910895982F8091CE01882319F01A
:100E10000DB407FEFDCF82EE8EBD0DB407FEFDCFF3
:100E2000892F903108F08FE08EBD81E08093CE0154
:100E30000895982F87FD9FE78091CE01882319F0B0
:100E40000DB407FEFDCF8BEB8EBD0DB407FEFDCFBD
:100E50009EBD81E08093CE010895982F8091CE01B0
:100E6000882319F00DB407FEFDCF892F881F88272E
:100E7000881F8C6D8EBD0DB407FEFDCF9F779EBD84
:100E800081E08093CE0108958091CE01882319F0EE
:100E90000DB407FEFDCF8BED8EBD0DB407FEFDCF6B
:100EA00083E090E06F9364E06A95F1F76F910197AA
:100EB000C9F71EBC0DB407FEFDCF1092CE018EB552
:100EC00008951F93582FDB018091CE01882319F0DC
:100ED0000DB407FEFDCF8BED8EBD81E08093CE017A
:100EE0000DB407FEFDCF40E0252F30E0215030400B
:100EF00063E070E01BED12C0CB016F9364E06A9574
:100F0000F1F76F910197C9F71EBD0DB407FEFDCF34
:100F10008EB5FD01E40FF11D80834F5F842F90E0BB
:100F2000821793074CF383E090E06F9364E06A9537
:100F3000F1F76F910197C9F71EBC0DB407FEFDCF05
:100F40001092CE018EB5A50FB11D11978C931F91F4
:100F500008958091CE01882319F00DB407FEFDCFCE
:100F600088EC8EBD0DB407FEFDCF80E48EBD0DB4C0
:100F700007FEFDCF1EBC81E08093CE010895582F5F
:100F80008250823008F050E088E02030380710F0BE
:100F90002FEF37E08091CE01882319F00DB407FEC2
:100FA000FDCF550F586C5EBD0DB407FEFDCFF901A6
:100FB000E078F770EE0FEF2FEE1FFF0BF19580E05A
:100FC00090E0442311F081E090E0A4E0880F991FA5
:100FD000AA95E1F740E050E0662311F041E050E0CF
:100FE000F5E0440F551FFA95E1F7842B8E2B8EBD4B
:100FF0000DB407FEFDCF822F8F778EBD81E08093E9
:10100000CE010895982F882311F491E003C0813216
:1010100008F090E28091CE01882319F00DB407FE0C
:10102000FDCF83EE8EBD0DB407FEFDCF91509EBD6A
:1010300081E08093CE0108958091CE01882319F03C
:101040000DB407FEFDCF8EED8EBD0DB407FEFDCFB6
:1010500083E090E06F9364E06A95F1F76F910197F8
:10106000C9F71EBC0DB407FEFDCF1092CE018EB5A0
:1010700008958091CE01882319F00DB407FEFDCFAD
:101080008FED8EBD0DB407FEFDCF83E090E06F9332
:1010900064E06A95F1F76F910197C9F71EBC0DB432
:1010A00007FEFDCF1092CE018EB508958091CE013E
:1010B000882319F00DB407FEFDCF8CEF8EBD0DB463
:1010C00007FEFDCF83E090E06F9364E06A95F1F74F
:1010D0006F910197C9F71EBC0DB407FEFDCF1092AA
:1010E000CE018EB508958091CE01882319F00DB4FC
:1010F00007FEFDCF8EEF8EBD0DB407FEFDCF83E062
:1011000090E06F9364E06A95F1F76F910197C9F7EA
:101110001EBC0DB407FEFDCF1092CE018EB5089512
:101120000F931F93CF93DF93EC0122E0803092075F
:1011300058F080E03DC0C8016F9364E06A95F1F714
:101140006F910197C9F702C004E110E00E94730893
:10115000882389F78091CE01882319F00DB407FE0A
:10116000FDCFCE018078907016E0969587951A9500
:10117000E1F79E0120703170832B886F8EBD0DB416
:1011800007FEFDCF9E012F772EBD0DB407FEFDCFCC
:1011900083E090E06F9364E06A95F1F76F910197B7
:1011A000C9F71EBC0DB407FEFDCF1092CE018EB55F
:1011B000DF91CF911F910F910895EF92FF921F93AE
:1011C000CF93DF93EC01162F22E08030920750F08E
:1011D0003DC0C7016F9364E06A95F1F76F91019785
:1011E000C9F703C034E1E32EF12C0E947308882371
:1011F00081F78091CE01882319F00DB407FEFDCF51
:10120000CE018078907026E0969587952A95E1F733
:101210009E0120703170832B806F212F30E0207869
:10122000307095E0359527959A95E1F7822B8EBD24
:101230000DB407FEFDCF9E012F772EBD0DB407FE26
:10124000FDCF1F771EBD81E08093CE01DF91CF914E
:101250001F91FF90EF900895DF92EF92FF920F930E
:101260001F93CF93DF93182FD62E042F82508230F6
:1012700008F010E0E90128E0C030D20760F0CFEFBD
:10128000D7E009C0C7016F9364E06A95F1F76F91E9
:101290000197C9F703C0E4E1EE2EF12C0E94730818
:1012A000882381F78091CE01882319F00DB407FEC1
:1012B000FDCF110F196C1EBD0DB407FEFDCFAE01A1
:1012C00040785770440F452F441F550B519580E0CF
:1012D00090E0002311F081E090E064E0880F991F16
:1012E0006A95E1F720E030E0DD2011F021E030E008
:1012F00055E0220F331F5A95E1F7822B842B8EBDC8
:101300000DB407FEFDCF9E012F772EBD81E08093A7
:10131000CE0182E390E06F9364E06A95F1F76F91FC
:101320000197C9F7DF91CF911F910F91FF90EF9037
:10133000DF900895CF93DF93C4E1D0E008C0CE01E1
:101340006F9364E06A95F1F76F910197C9F70E9476
:1013500073088823A1F78091CE01882319F00DB47A
:1013600007FEFDCF8AEB8EBD81E08093CE01DF9139
:10137000CF910895CF93DF93C4E1D0E008C0CE01B0
:101380006F9364E06A95F1F76F910197C9F70E9436
:1013900073088823A1F78091CE01882319F00DB43A
:1013A00007FEFDCF80EE8EBD81E08093CE01DF9100
:1013B000CF910895CF92DF92FF920F931F93DF9307
:1013C000CF9300D0CDB7DEB7082F7A836983F62E8E
:1013D0001A81B4E1CB2ED12C08C0C6016F9364E012
:1013E0006A95F1F76F910197C9F70E9473088823F6
:1013F000A1F78091CE01882319F00DB407FEFDCF2F
:10140000802F881F8827881F886A2F2D30E020783A
:101410003070A5E035952795AA95E1F7822B212F0D
:1014200030E020783070F6E035952795FA95E1F7B1
:10143000822B8EBD0DB407FEFDCF0F770EBD0DB410
:1014400007FEFDCF1F771EBD0DB407FEFDCF8FE752
:10145000F822FEBC81E08093CE010F900F90CF91D7
:10146000DF911F910F91FF90DF90CF9008951F9310
:10147000CF93DF93182F883050F01BC0CE016F93AD
:1014800064E06A95F1F76F910197C9F702C0C4E172
:10149000D0E00E947308882389F78091CE018823C9
:1014A00019F00DB407FEFDCF106B1EBD81E08093D7
:1014B000CE01DF91CF911F9108958091CE018823B5
:1014C00019F00DB407FEFDCF8AED8EBD0DB407FEF9
:1014D000FDCF83E090E06F9364E06A95F1F76F9140
:1014E0000197C9F71EBC0DB407FEFDCF1092CE01C7
:1014F0008EB50895FC01DB018091CE01882319F09F
:101500000DB407FEFDCF8DEF8EBD0DB407FEFDCFF0
:1015100083E090E06F9364E06A95F1F76F91019733
:10152000C9F71EBC0DB407FEFDCF1092CE018EB5DB
:1015300080838091CE01882319F00DB407FEFDCF82
:1015400083E090E06F9364E06A95F1F76F91019703
:10155000C9F71EBC0DB407FEFDCF1092CE018EB5AB
:101560008C93089580E090E06FEF0E94DD0808956D
:10157000643008F063E020E030E0882311F021E0DF
:1015800030E0220F331F220F331F622B81E090E0E7
:101590000E94DD080895643008F063E020E030E048
:1015A000882311F021E030E0220F331F220F331F78
:1015B000622B82E090E00E94DD080895282F8823A6
:1015C00009F421E090E060E8862F822321F46695FB
:1015D0009F5F9830C9F7622383E090E00E94DD08A6
:1015E0000895282F882309F421E090E060E8862FF1
:1015F000822321F466959F5F9830C9F7622384E0C7
:1016000090E00E94DD0808951F93282F162F67FD94
:101610001FE785E090E0622F0E94DD0886E090E001
:10162000612F0E94DD081F9108951F93282F162F08
:1016300067FD1FE787E090E0622F0E94DD0888E0E9
:1016400090E0612F0E94DD081F910895682F89E0C6
:1016500090E00E94DD080895682F8AE090E00E94E3
:10166000DD080895682F8BE090E00E94DD08089562
:10167000682F8CE090E00E94DD080895CF93DF93FF
:10168000582FE62F8250823008F050E0E90188E0C0
:101690002030380710F0CFEFD7E060E070E044234F
:1016A00011F061E070E0660F771F80E090E0EE23BC
:1016B00011F081E090E023E0880F991F2A95E1F76F
:1016C000682B5295507F652B8DE090E00E94DD08DD
:1016D0009E01207037708EE090E0632F0E94DD083D
:1016E0008FE090E06C2F0E94DD08DF91CF9108958C
:1016F0008DE090E060E40E94DD080895682F882363
:1017000011F461E003C0813208F060E280E190E012
:101710000E94DD080895682F803108F06FE081E1B4
:1017200090E00E94DD080895682F83E190E00E9418
:10173000DD080895682F82E190E00E94DD08089599
:101740001F93282F162F87E190E0622F0E94DD085B
:1017500086E190E0612F0E94DD081F910895AA1B89
:10176000BB1B51E107C0AA1FBB1FA617B70710F08C
:10177000A61BB70B881F991F5A95A9F780959095BE
:0A178000BC01CD010895F894FFCFDD
:10178A002020504F5254413A20202020504F52548A
:10179A00443A2020200020200053706565643A20D6
:1017AA00007370656564203D207472696D706F7492
:1017BA002030780020202020202020506F6C6F6C71
:1017CA00750076657273696F6E20004F2072206112
:1017DA00206E2067207520742061206E2058320008
:1017EA00776565656565656500416C6C20796F751F
:1017FA0072206261736573206172652062656C6F25
:10180A006E6720746F207573212120200020427298
:10181A0065616B696E670020447269766520426172
:10182A00636B776172640020447269766520537431
:10183A0072616967687400205475726E204C65661F
:0E184A007400205475726E2052696768740035
:00000001FF
